{
  "_format": "hh-sol-artifact-1",
  "contractName": "TeleswapV2Router02",
  "sourceName": "contracts/TeleswapV2Router02.sol",
  "abi": [
    {
      "inputs": [
        {
          "internalType": "address",
          "name": "_factory",
          "type": "address"
        },
        {
          "internalType": "address",
          "name": "_WETH",
          "type": "address"
        }
      ],
      "stateMutability": "nonpayable",
      "type": "constructor"
    },
    {
      "inputs": [],
      "name": "WETH",
      "outputs": [
        {
          "internalType": "address",
          "name": "",
          "type": "address"
        }
      ],
      "stateMutability": "view",
      "type": "function"
    },
    {
      "inputs": [
        {
          "components": [
            {
              "internalType": "address",
              "name": "from",
              "type": "address"
            },
            {
              "internalType": "address",
              "name": "to",
              "type": "address"
            },
            {
              "internalType": "bool",
              "name": "stable",
              "type": "bool"
            }
          ],
          "internalType": "struct route",
          "name": "_route",
          "type": "tuple"
        },
        {
          "internalType": "uint256",
          "name": "amountADesired",
          "type": "uint256"
        },
        {
          "internalType": "uint256",
          "name": "amountBDesired",
          "type": "uint256"
        },
        {
          "internalType": "uint256",
          "name": "amountAMin",
          "type": "uint256"
        },
        {
          "internalType": "uint256",
          "name": "amountBMin",
          "type": "uint256"
        },
        {
          "internalType": "address",
          "name": "to",
          "type": "address"
        },
        {
          "internalType": "uint256",
          "name": "deadline",
          "type": "uint256"
        }
      ],
      "name": "addLiquidity",
      "outputs": [
        {
          "internalType": "uint256",
          "name": "amountA",
          "type": "uint256"
        },
        {
          "internalType": "uint256",
          "name": "amountB",
          "type": "uint256"
        },
        {
          "internalType": "uint256",
          "name": "liquidity",
          "type": "uint256"
        }
      ],
      "stateMutability": "nonpayable",
      "type": "function"
    },
    {
      "inputs": [
        {
          "components": [
            {
              "internalType": "address",
              "name": "from",
              "type": "address"
            },
            {
              "internalType": "address",
              "name": "to",
              "type": "address"
            },
            {
              "internalType": "bool",
              "name": "stable",
              "type": "bool"
            }
          ],
          "internalType": "struct route",
          "name": "_route",
          "type": "tuple"
        },
        {
          "internalType": "uint256",
          "name": "amountTokenDesired",
          "type": "uint256"
        },
        {
          "internalType": "uint256",
          "name": "amountTokenMin",
          "type": "uint256"
        },
        {
          "internalType": "uint256",
          "name": "amountETHMin",
          "type": "uint256"
        },
        {
          "internalType": "address",
          "name": "to",
          "type": "address"
        },
        {
          "internalType": "uint256",
          "name": "deadline",
          "type": "uint256"
        }
      ],
      "name": "addLiquidityETH",
      "outputs": [
        {
          "internalType": "uint256",
          "name": "amountToken",
          "type": "uint256"
        },
        {
          "internalType": "uint256",
          "name": "amountETH",
          "type": "uint256"
        },
        {
          "internalType": "uint256",
          "name": "liquidity",
          "type": "uint256"
        }
      ],
      "stateMutability": "payable",
      "type": "function"
    },
    {
      "inputs": [],
      "name": "factory",
      "outputs": [
        {
          "internalType": "address",
          "name": "",
          "type": "address"
        }
      ],
      "stateMutability": "view",
      "type": "function"
    },
    {
      "inputs": [
        {
          "internalType": "uint256",
          "name": "amountOut",
          "type": "uint256"
        },
        {
          "internalType": "uint256",
          "name": "reserveIn",
          "type": "uint256"
        },
        {
          "internalType": "uint256",
          "name": "reserveOut",
          "type": "uint256"
        },
        {
          "internalType": "bool",
          "name": "stable",
          "type": "bool"
        },
        {
          "internalType": "uint256",
          "name": "decimalIn",
          "type": "uint256"
        },
        {
          "internalType": "uint256",
          "name": "decimalOut",
          "type": "uint256"
        }
      ],
      "name": "getAmountIn",
      "outputs": [
        {
          "internalType": "uint256",
          "name": "amountIn",
          "type": "uint256"
        }
      ],
      "stateMutability": "pure",
      "type": "function"
    },
    {
      "inputs": [
        {
          "internalType": "uint256",
          "name": "amountIn",
          "type": "uint256"
        },
        {
          "internalType": "uint256",
          "name": "reserveIn",
          "type": "uint256"
        },
        {
          "internalType": "uint256",
          "name": "reserveOut",
          "type": "uint256"
        },
        {
          "internalType": "bool",
          "name": "stable",
          "type": "bool"
        },
        {
          "internalType": "uint256",
          "name": "decimalIn",
          "type": "uint256"
        },
        {
          "internalType": "uint256",
          "name": "decimalOut",
          "type": "uint256"
        }
      ],
      "name": "getAmountOut",
      "outputs": [
        {
          "internalType": "uint256",
          "name": "amountOut",
          "type": "uint256"
        }
      ],
      "stateMutability": "pure",
      "type": "function"
    },
    {
      "inputs": [
        {
          "internalType": "uint256",
          "name": "amountOut",
          "type": "uint256"
        },
        {
          "components": [
            {
              "internalType": "address",
              "name": "from",
              "type": "address"
            },
            {
              "internalType": "address",
              "name": "to",
              "type": "address"
            },
            {
              "internalType": "bool",
              "name": "stable",
              "type": "bool"
            }
          ],
          "internalType": "struct route[]",
          "name": "_routes",
          "type": "tuple[]"
        }
      ],
      "name": "getAmountsIn",
      "outputs": [
        {
          "internalType": "uint256[]",
          "name": "amounts",
          "type": "uint256[]"
        }
      ],
      "stateMutability": "view",
      "type": "function"
    },
    {
      "inputs": [
        {
          "internalType": "uint256",
          "name": "amountIn",
          "type": "uint256"
        },
        {
          "components": [
            {
              "internalType": "address",
              "name": "from",
              "type": "address"
            },
            {
              "internalType": "address",
              "name": "to",
              "type": "address"
            },
            {
              "internalType": "bool",
              "name": "stable",
              "type": "bool"
            }
          ],
          "internalType": "struct route[]",
          "name": "_routes",
          "type": "tuple[]"
        }
      ],
      "name": "getAmountsOut",
      "outputs": [
        {
          "internalType": "uint256[]",
          "name": "amounts",
          "type": "uint256[]"
        }
      ],
      "stateMutability": "view",
      "type": "function"
    },
    {
      "inputs": [
        {
          "internalType": "uint256",
          "name": "deadline",
          "type": "uint256"
        },
        {
          "internalType": "bytes[]",
          "name": "data",
          "type": "bytes[]"
        }
      ],
      "name": "multicall",
      "outputs": [
        {
          "internalType": "bytes[]",
          "name": "results",
          "type": "bytes[]"
        }
      ],
      "stateMutability": "payable",
      "type": "function"
    },
    {
      "inputs": [
        {
          "internalType": "uint256",
          "name": "amountA",
          "type": "uint256"
        },
        {
          "internalType": "uint256",
          "name": "reserveA",
          "type": "uint256"
        },
        {
          "internalType": "uint256",
          "name": "reserveB",
          "type": "uint256"
        }
      ],
      "name": "quote",
      "outputs": [
        {
          "internalType": "uint256",
          "name": "amountB",
          "type": "uint256"
        }
      ],
      "stateMutability": "pure",
      "type": "function"
    },
    {
      "inputs": [],
      "name": "refundETH",
      "outputs": [],
      "stateMutability": "payable",
      "type": "function"
    },
    {
      "inputs": [
        {
          "components": [
            {
              "internalType": "address",
              "name": "from",
              "type": "address"
            },
            {
              "internalType": "address",
              "name": "to",
              "type": "address"
            },
            {
              "internalType": "bool",
              "name": "stable",
              "type": "bool"
            }
          ],
          "internalType": "struct route",
          "name": "_route",
          "type": "tuple"
        },
        {
          "internalType": "uint256",
          "name": "liquidity",
          "type": "uint256"
        },
        {
          "internalType": "uint256",
          "name": "amountAMin",
          "type": "uint256"
        },
        {
          "internalType": "uint256",
          "name": "amountBMin",
          "type": "uint256"
        },
        {
          "internalType": "address",
          "name": "to",
          "type": "address"
        },
        {
          "internalType": "uint256",
          "name": "deadline",
          "type": "uint256"
        }
      ],
      "name": "removeLiquidity",
      "outputs": [
        {
          "internalType": "uint256",
          "name": "amountA",
          "type": "uint256"
        },
        {
          "internalType": "uint256",
          "name": "amountB",
          "type": "uint256"
        }
      ],
      "stateMutability": "nonpayable",
      "type": "function"
    },
    {
      "inputs": [
        {
          "components": [
            {
              "internalType": "address",
              "name": "from",
              "type": "address"
            },
            {
              "internalType": "address",
              "name": "to",
              "type": "address"
            },
            {
              "internalType": "bool",
              "name": "stable",
              "type": "bool"
            }
          ],
          "internalType": "struct route",
          "name": "_route",
          "type": "tuple"
        },
        {
          "internalType": "uint256",
          "name": "liquidity",
          "type": "uint256"
        },
        {
          "internalType": "uint256",
          "name": "amountTokenMin",
          "type": "uint256"
        },
        {
          "internalType": "uint256",
          "name": "amountETHMin",
          "type": "uint256"
        },
        {
          "internalType": "address",
          "name": "to",
          "type": "address"
        },
        {
          "internalType": "uint256",
          "name": "deadline",
          "type": "uint256"
        }
      ],
      "name": "removeLiquidityETH",
      "outputs": [
        {
          "internalType": "uint256",
          "name": "amountToken",
          "type": "uint256"
        },
        {
          "internalType": "uint256",
          "name": "amountETH",
          "type": "uint256"
        }
      ],
      "stateMutability": "nonpayable",
      "type": "function"
    },
    {
      "inputs": [
        {
          "components": [
            {
              "internalType": "address",
              "name": "from",
              "type": "address"
            },
            {
              "internalType": "address",
              "name": "to",
              "type": "address"
            },
            {
              "internalType": "bool",
              "name": "stable",
              "type": "bool"
            }
          ],
          "internalType": "struct route",
          "name": "_route",
          "type": "tuple"
        },
        {
          "internalType": "uint256",
          "name": "liquidity",
          "type": "uint256"
        },
        {
          "internalType": "uint256",
          "name": "amountTokenMin",
          "type": "uint256"
        },
        {
          "internalType": "uint256",
          "name": "amountETHMin",
          "type": "uint256"
        },
        {
          "internalType": "address",
          "name": "to",
          "type": "address"
        },
        {
          "internalType": "uint256",
          "name": "deadline",
          "type": "uint256"
        }
      ],
      "name": "removeLiquidityETHSupportingFeeOnTransferTokens",
      "outputs": [
        {
          "internalType": "uint256",
          "name": "amountETH",
          "type": "uint256"
        }
      ],
      "stateMutability": "nonpayable",
      "type": "function"
    },
    {
      "inputs": [
        {
          "components": [
            {
              "internalType": "address",
              "name": "from",
              "type": "address"
            },
            {
              "internalType": "address",
              "name": "to",
              "type": "address"
            },
            {
              "internalType": "bool",
              "name": "stable",
              "type": "bool"
            }
          ],
          "internalType": "struct route",
          "name": "_route",
          "type": "tuple"
        },
        {
          "internalType": "uint256",
          "name": "liquidity",
          "type": "uint256"
        },
        {
          "internalType": "uint256",
          "name": "amountTokenMin",
          "type": "uint256"
        },
        {
          "internalType": "uint256",
          "name": "amountETHMin",
          "type": "uint256"
        },
        {
          "internalType": "address",
          "name": "to",
          "type": "address"
        },
        {
          "internalType": "uint256",
          "name": "deadline",
          "type": "uint256"
        },
        {
          "internalType": "bool",
          "name": "approveMax",
          "type": "bool"
        },
        {
          "components": [
            {
              "internalType": "uint8",
              "name": "v",
              "type": "uint8"
            },
            {
              "internalType": "bytes32",
              "name": "r",
              "type": "bytes32"
            },
            {
              "internalType": "bytes32",
              "name": "s",
              "type": "bytes32"
            }
          ],
          "internalType": "struct Sig",
          "name": "sig",
          "type": "tuple"
        }
      ],
      "name": "removeLiquidityETHWithPermit",
      "outputs": [
        {
          "internalType": "uint256",
          "name": "amountToken",
          "type": "uint256"
        },
        {
          "internalType": "uint256",
          "name": "amountETH",
          "type": "uint256"
        }
      ],
      "stateMutability": "nonpayable",
      "type": "function"
    },
    {
      "inputs": [
        {
          "components": [
            {
              "internalType": "address",
              "name": "from",
              "type": "address"
            },
            {
              "internalType": "address",
              "name": "to",
              "type": "address"
            },
            {
              "internalType": "bool",
              "name": "stable",
              "type": "bool"
            }
          ],
          "internalType": "struct route",
          "name": "_route",
          "type": "tuple"
        },
        {
          "internalType": "uint256",
          "name": "liquidity",
          "type": "uint256"
        },
        {
          "internalType": "uint256",
          "name": "amountTokenMin",
          "type": "uint256"
        },
        {
          "internalType": "uint256",
          "name": "amountETHMin",
          "type": "uint256"
        },
        {
          "internalType": "address",
          "name": "to",
          "type": "address"
        },
        {
          "internalType": "uint256",
          "name": "deadline",
          "type": "uint256"
        },
        {
          "internalType": "bool",
          "name": "approveMax",
          "type": "bool"
        },
        {
          "components": [
            {
              "internalType": "uint8",
              "name": "v",
              "type": "uint8"
            },
            {
              "internalType": "bytes32",
              "name": "r",
              "type": "bytes32"
            },
            {
              "internalType": "bytes32",
              "name": "s",
              "type": "bytes32"
            }
          ],
          "internalType": "struct Sig",
          "name": "sig",
          "type": "tuple"
        }
      ],
      "name": "removeLiquidityETHWithPermitSupportingFeeOnTransferTokens",
      "outputs": [
        {
          "internalType": "uint256",
          "name": "amountETH",
          "type": "uint256"
        }
      ],
      "stateMutability": "nonpayable",
      "type": "function"
    },
    {
      "inputs": [
        {
          "components": [
            {
              "internalType": "address",
              "name": "from",
              "type": "address"
            },
            {
              "internalType": "address",
              "name": "to",
              "type": "address"
            },
            {
              "internalType": "bool",
              "name": "stable",
              "type": "bool"
            }
          ],
          "internalType": "struct route",
          "name": "_route",
          "type": "tuple"
        },
        {
          "internalType": "uint256",
          "name": "liquidity",
          "type": "uint256"
        },
        {
          "internalType": "uint256",
          "name": "amountAMin",
          "type": "uint256"
        },
        {
          "internalType": "uint256",
          "name": "amountBMin",
          "type": "uint256"
        },
        {
          "internalType": "address",
          "name": "to",
          "type": "address"
        },
        {
          "internalType": "uint256",
          "name": "deadline",
          "type": "uint256"
        },
        {
          "internalType": "bool",
          "name": "approveMax",
          "type": "bool"
        },
        {
          "components": [
            {
              "internalType": "uint8",
              "name": "v",
              "type": "uint8"
            },
            {
              "internalType": "bytes32",
              "name": "r",
              "type": "bytes32"
            },
            {
              "internalType": "bytes32",
              "name": "s",
              "type": "bytes32"
            }
          ],
          "internalType": "struct Sig",
          "name": "sig",
          "type": "tuple"
        }
      ],
      "name": "removeLiquidityWithPermit",
      "outputs": [
        {
          "internalType": "uint256",
          "name": "amountA",
          "type": "uint256"
        },
        {
          "internalType": "uint256",
          "name": "amountB",
          "type": "uint256"
        }
      ],
      "stateMutability": "nonpayable",
      "type": "function"
    },
    {
      "inputs": [
        {
          "internalType": "uint256",
          "name": "amountOut",
          "type": "uint256"
        },
        {
          "components": [
            {
              "internalType": "address",
              "name": "from",
              "type": "address"
            },
            {
              "internalType": "address",
              "name": "to",
              "type": "address"
            },
            {
              "internalType": "bool",
              "name": "stable",
              "type": "bool"
            }
          ],
          "internalType": "struct route[]",
          "name": "routes",
          "type": "tuple[]"
        },
        {
          "internalType": "address",
          "name": "to",
          "type": "address"
        },
        {
          "internalType": "uint256",
          "name": "deadline",
          "type": "uint256"
        }
      ],
      "name": "swapETHForExactTokens",
      "outputs": [
        {
          "internalType": "uint256[]",
          "name": "amounts",
          "type": "uint256[]"
        }
      ],
      "stateMutability": "payable",
      "type": "function"
    },
    {
      "inputs": [
        {
          "internalType": "uint256",
          "name": "amountOut",
          "type": "uint256"
        },
        {
          "components": [
            {
              "internalType": "address",
              "name": "from",
              "type": "address"
            },
            {
              "internalType": "address",
              "name": "to",
              "type": "address"
            },
            {
              "internalType": "bool",
              "name": "stable",
              "type": "bool"
            }
          ],
          "internalType": "struct route[]",
          "name": "routes",
          "type": "tuple[]"
        },
        {
          "internalType": "address",
          "name": "to",
          "type": "address"
        },
        {
          "internalType": "uint256",
          "name": "deadline",
          "type": "uint256"
        }
      ],
      "name": "swapETHForExactTokensMulti",
      "outputs": [
        {
          "internalType": "uint256[]",
          "name": "amounts",
          "type": "uint256[]"
        }
      ],
      "stateMutability": "payable",
      "type": "function"
    },
    {
      "inputs": [
        {
          "internalType": "uint256",
          "name": "amountIn",
          "type": "uint256"
        },
        {
          "internalType": "uint256",
          "name": "amountOutMin",
          "type": "uint256"
        },
        {
          "components": [
            {
              "internalType": "address",
              "name": "from",
              "type": "address"
            },
            {
              "internalType": "address",
              "name": "to",
              "type": "address"
            },
            {
              "internalType": "bool",
              "name": "stable",
              "type": "bool"
            }
          ],
          "internalType": "struct route[]",
          "name": "routes",
          "type": "tuple[]"
        },
        {
          "internalType": "address",
          "name": "to",
          "type": "address"
        },
        {
          "internalType": "uint256",
          "name": "deadline",
          "type": "uint256"
        }
      ],
      "name": "swapExactETHForTokens",
      "outputs": [
        {
          "internalType": "uint256[]",
          "name": "amounts",
          "type": "uint256[]"
        }
      ],
      "stateMutability": "payable",
      "type": "function"
    },
    {
      "inputs": [
        {
          "internalType": "uint256",
          "name": "amountIn",
          "type": "uint256"
        },
        {
          "internalType": "uint256",
          "name": "amountOutMin",
          "type": "uint256"
        },
        {
          "components": [
            {
              "internalType": "address",
              "name": "from",
              "type": "address"
            },
            {
              "internalType": "address",
              "name": "to",
              "type": "address"
            },
            {
              "internalType": "bool",
              "name": "stable",
              "type": "bool"
            }
          ],
          "internalType": "struct route[]",
          "name": "routes",
          "type": "tuple[]"
        },
        {
          "internalType": "address",
          "name": "to",
          "type": "address"
        },
        {
          "internalType": "uint256",
          "name": "deadline",
          "type": "uint256"
        }
      ],
      "name": "swapExactETHForTokensSupportingFeeOnTransferTokens",
      "outputs": [],
      "stateMutability": "payable",
      "type": "function"
    },
    {
      "inputs": [
        {
          "internalType": "uint256",
          "name": "amountIn",
          "type": "uint256"
        },
        {
          "internalType": "uint256",
          "name": "amountOutMin",
          "type": "uint256"
        },
        {
          "components": [
            {
              "internalType": "address",
              "name": "from",
              "type": "address"
            },
            {
              "internalType": "address",
              "name": "to",
              "type": "address"
            },
            {
              "internalType": "bool",
              "name": "stable",
              "type": "bool"
            }
          ],
          "internalType": "struct route[]",
          "name": "routes",
          "type": "tuple[]"
        },
        {
          "internalType": "address",
          "name": "to",
          "type": "address"
        },
        {
          "internalType": "uint256",
          "name": "deadline",
          "type": "uint256"
        }
      ],
      "name": "swapExactTokensForETH",
      "outputs": [
        {
          "internalType": "uint256[]",
          "name": "amounts",
          "type": "uint256[]"
        }
      ],
      "stateMutability": "nonpayable",
      "type": "function"
    },
    {
      "inputs": [
        {
          "internalType": "uint256",
          "name": "amountIn",
          "type": "uint256"
        },
        {
          "internalType": "uint256",
          "name": "amountOutMin",
          "type": "uint256"
        },
        {
          "components": [
            {
              "internalType": "address",
              "name": "from",
              "type": "address"
            },
            {
              "internalType": "address",
              "name": "to",
              "type": "address"
            },
            {
              "internalType": "bool",
              "name": "stable",
              "type": "bool"
            }
          ],
          "internalType": "struct route[]",
          "name": "routes",
          "type": "tuple[]"
        },
        {
          "internalType": "address",
          "name": "to",
          "type": "address"
        },
        {
          "internalType": "uint256",
          "name": "deadline",
          "type": "uint256"
        }
      ],
      "name": "swapExactTokensForETHSupportingFeeOnTransferTokens",
      "outputs": [],
      "stateMutability": "nonpayable",
      "type": "function"
    },
    {
      "inputs": [
        {
          "internalType": "uint256",
          "name": "amountIn",
          "type": "uint256"
        },
        {
          "internalType": "uint256",
          "name": "amountOutMin",
          "type": "uint256"
        },
        {
          "components": [
            {
              "internalType": "address",
              "name": "from",
              "type": "address"
            },
            {
              "internalType": "address",
              "name": "to",
              "type": "address"
            },
            {
              "internalType": "bool",
              "name": "stable",
              "type": "bool"
            }
          ],
          "internalType": "struct route[]",
          "name": "routes",
          "type": "tuple[]"
        },
        {
          "internalType": "address",
          "name": "to",
          "type": "address"
        },
        {
          "internalType": "uint256",
          "name": "deadline",
          "type": "uint256"
        }
      ],
      "name": "swapExactTokensForTokens",
      "outputs": [
        {
          "internalType": "uint256[]",
          "name": "amounts",
          "type": "uint256[]"
        }
      ],
      "stateMutability": "nonpayable",
      "type": "function"
    },
    {
      "inputs": [
        {
          "internalType": "uint256",
          "name": "amountIn",
          "type": "uint256"
        },
        {
          "internalType": "uint256",
          "name": "amountOutMin",
          "type": "uint256"
        },
        {
          "components": [
            {
              "internalType": "address",
              "name": "from",
              "type": "address"
            },
            {
              "internalType": "address",
              "name": "to",
              "type": "address"
            },
            {
              "internalType": "bool",
              "name": "stable",
              "type": "bool"
            }
          ],
          "internalType": "struct route[]",
          "name": "routes",
          "type": "tuple[]"
        },
        {
          "internalType": "address",
          "name": "to",
          "type": "address"
        },
        {
          "internalType": "uint256",
          "name": "deadline",
          "type": "uint256"
        }
      ],
      "name": "swapExactTokensForTokensSupportingFeeOnTransferTokens",
      "outputs": [],
      "stateMutability": "nonpayable",
      "type": "function"
    },
    {
      "inputs": [
        {
          "internalType": "uint256",
          "name": "amountOut",
          "type": "uint256"
        },
        {
          "internalType": "uint256",
          "name": "amountInMax",
          "type": "uint256"
        },
        {
          "components": [
            {
              "internalType": "address",
              "name": "from",
              "type": "address"
            },
            {
              "internalType": "address",
              "name": "to",
              "type": "address"
            },
            {
              "internalType": "bool",
              "name": "stable",
              "type": "bool"
            }
          ],
          "internalType": "struct route[]",
          "name": "routes",
          "type": "tuple[]"
        },
        {
          "internalType": "address",
          "name": "to",
          "type": "address"
        },
        {
          "internalType": "uint256",
          "name": "deadline",
          "type": "uint256"
        }
      ],
      "name": "swapTokensForExactETH",
      "outputs": [
        {
          "internalType": "uint256[]",
          "name": "amounts",
          "type": "uint256[]"
        }
      ],
      "stateMutability": "nonpayable",
      "type": "function"
    },
    {
      "inputs": [
        {
          "internalType": "uint256",
          "name": "amountOut",
          "type": "uint256"
        },
        {
          "internalType": "uint256",
          "name": "amountInMax",
          "type": "uint256"
        },
        {
          "components": [
            {
              "internalType": "address",
              "name": "from",
              "type": "address"
            },
            {
              "internalType": "address",
              "name": "to",
              "type": "address"
            },
            {
              "internalType": "bool",
              "name": "stable",
              "type": "bool"
            }
          ],
          "internalType": "struct route[]",
          "name": "routes",
          "type": "tuple[]"
        },
        {
          "internalType": "address",
          "name": "to",
          "type": "address"
        },
        {
          "internalType": "uint256",
          "name": "deadline",
          "type": "uint256"
        }
      ],
      "name": "swapTokensForExactTokens",
      "outputs": [
        {
          "internalType": "uint256[]",
          "name": "amounts",
          "type": "uint256[]"
        }
      ],
      "stateMutability": "nonpayable",
      "type": "function"
    },
    {
      "stateMutability": "payable",
      "type": "receive"
    }
  ],
  "bytecode": "0x60806040523480156200001157600080fd5b5060405162005154380380620051548339810160408190526200003491620000e0565b600080546001600160a01b038085166001600160a01b031992831681179093556001805491851691909216179055604080516351ad19bd60e11b8152905163a35a337a91600480820192602092909190829003018186803b1580156200009957600080fd5b505afa158015620000ae573d6000803e3d6000fd5b505050506040513d601f19601f82011682018060405250810190620000d491906200011e565b60025550620001509050565b60008060408385031215620000f3578182fd5b8251620001008162000137565b6020840151909250620001138162000137565b809150509250929050565b60006020828403121562000130578081fd5b5051919050565b6001600160a01b03811681146200014d57600080fd5b50565b614ff480620001606000396000f3fe6080604052600436106101a05760003560e01c80639881fcb4116100ec578063d5c54e331161008a578063dc2972c211610064578063dc2972c21461048b578063ed1fbca2146104ab578063f41766d8146104cb578063f4f3de4f146104eb576101bb565b8063d5c54e331461042b578063d69f344c1461044b578063d8ec27771461046b576101bb565b8063ad615dec116100c6578063ad615dec146103c3578063c45a0155146103e3578063cad77ef2146103f8578063d4d6886f14610418576101bb565b80639881fcb41461036157806399e629f914610381578063ad5c4648146103a1576101bb565b8063633afc92116101595780637af728c8116101335780637af728c8146102df5780637d03c793146102ff5780637de50ddf1461032157806382179c5d14610341576101bb565b8063633afc92146102995780636cc1ae13146102ac57806371d6614d146102cc576101bb565b80630cd7ee9f146101c057806312210e8a146101f757806318a13086146101ff5780633e6c63c91461022c5780634b45e5351461024c5780635ae401dc14610279576101bb565b366101bb576001546001600160a01b031633146101b957fe5b005b600080fd5b3480156101cc57600080fd5b506101e06101db366004614231565b6104fe565b6040516101ee929190614e6b565b60405180910390f35b6101b9610650565b34801561020b57600080fd5b5061021f61021a366004614564565b610662565b6040516101ee9190614862565b34801561023857600080fd5b506101e06102473660046141d4565b610902565b34801561025857600080fd5b5061026c610267366004614231565b6109d6565b6040516101ee9190614e62565b61028c6102873660046143ae565b610abe565b6040516101ee9190614802565b61021f6102a7366004614424565b610c21565b3480156102b857600080fd5b506101b96102c7366004614564565b610ef5565b6101b96102da366004614564565b61114a565b3480156102eb57600080fd5b506101b96102fa366004614564565b6113e6565b61031261030d3660046141d4565b6115dc565b6040516101ee93929190614ea6565b34801561032d57600080fd5b506101e061033c366004614231565b6117f8565b34801561034d57600080fd5b506101e061035c366004614337565b6118e5565b34801561036d57600080fd5b5061021f61037c366004614488565b611ac2565b34801561038d57600080fd5b5061026c61039c3660046145ff565b611c8d565b3480156103ad57600080fd5b506103b6611caa565b6040516101ee919061474c565b3480156103cf57600080fd5b5061026c6103de3660046145d4565b611cb9565b3480156103ef57600080fd5b506103b6611cd0565b34801561040457600080fd5b5061026c610413366004614337565b611cdf565b61021f610426366004614424565b611e0a565b34801561043757600080fd5b5061021f610446366004614488565b61204e565b34801561045757600080fd5b5061021f610466366004614564565b61220f565b34801561047757600080fd5b5061026c6104863660046145ff565b612376565b34801561049757600080fd5b506103126104a63660046142b3565b612386565b3480156104b757600080fd5b5061021f6104c6366004614564565b6124b9565b3480156104d757600080fd5b5061021f6104e6366004614564565b6125c6565b61021f6104f9366004614564565b61271b565b6002546000805490918291829161052c916001600160a01b0316610527368f90038f018f61431c565b6129b7565b905060008561053b578a61053f565b6000195b90506001600160a01b03821663d505accf3330848b61056160208c018c614651565b8b602001358c604001356040518863ffffffff1660e01b815260040161058d9796959493929190614760565b600060405180830381600087803b1580156105a757600080fd5b505af11580156105bb573d6000803e3d6000fd5b5050604051633e6c63c960e01b8152309450633e6c63c993506105ee92508e91508d908d908d908d908d90600401614dec565b6040805180830381600087803b15801561060757600080fd5b505af115801561061b573d6000803e3d6000fd5b505050506040513d601f19601f8201168201806040525081019061063f9190614541565b909b909a5098505050505050505050565b4715610660576106603347612a37565b565b6060814281101561068e5760405162461bcd60e51b8152600401610685906148db565b60405180910390fd5b6001546001600160a01b0316868660001981018181106106aa57fe5b90506060020160200160208101906106c291906140e6565b6001600160a01b0316146106e85760405162461bcd60e51b815260040161068590614c71565b610744888787808060200260200160405190810160405280939291908181526020016000905b8282101561073a5761072b6060830286013681900381019061431c565b8152602001906001019061070e565b5050505050611ac2565b9150868260018451038151811061075757fe5b6020026020010151101561077d5760405162461bcd60e51b815260040161068590614cdf565b6107fc8686600081811061078d57fe5b6107a392602060609092020190810191506140e6565b336107e26002546000809054906101000a90046001600160a01b03168b8b60008181106107cc57fe5b905060600201803603810190610527919061431c565b856000815181106107ef57fe5b6020026020010151612afa565b610859828787808060200260200160405190810160405280939291908181526020016000905b8282101561084e5761083f6060830286013681900381019061431c565b81526020019060010190610822565b505050505030612beb565b60015482516001600160a01b0390911690632e1a7d4d908490600019810190811061088057fe5b60200260200101516040518263ffffffff1660e01b81526004016108a49190614e62565b600060405180830381600087803b1580156108be57600080fd5b505af11580156108d2573d6000803e3d6000fd5b505050506108f784836001855103815181106108ea57fe5b6020026020010151612a37565b509695505050505050565b60008082428110156109265760405162461bcd60e51b8152600401610685906148db565b610942610938368b90038b018b61431c565b89898930896118e5565b909350915061095e61095760208b018b6140e6565b8685612d9d565b600154604051632e1a7d4d60e01b81526001600160a01b0390911690632e1a7d4d9061098e908590600401614e62565b600060405180830381600087803b1580156109a857600080fd5b505af11580156109bc573d6000803e3d6000fd5b505050506109ca8583612a37565b50965096945050505050565b60025460008054909182916109fe91906001600160a01b0316610527368e90038e018e61431c565b9050600084610a0d5789610a11565b6000195b90506001600160a01b03821663d505accf3330848a610a3360208b018b614651565b8a602001358b604001356040518863ffffffff1660e01b8152600401610a5f9796959493929190614760565b600060405180830381600087803b158015610a7957600080fd5b505af1158015610a8d573d6000803e3d6000fd5b50505050610aaf8b803603810190610aa5919061431c565b8b8b8b8b8b611cdf565b9b9a5050505050505050505050565b60608342811015610ae15760405162461bcd60e51b8152600401610685906148db565b826001600160401b0381118015610af757600080fd5b50604051908082528060200260200182016040528015610b2b57816020015b6060815260200190600190039081610b165790505b50915060005b83811015610c18576000606030878785818110610b4a57fe5b9050602002810190610b5c9190614ebc565b604051610b6a9291906146e8565b600060405180830381855af49150503d8060008114610ba5576040519150601f19603f3d011682016040523d82523d6000602084013e610baa565b606091505b509150915081610bf657604481511015610bc357600080fd5b60048101905080806020019051810190610bdd9190614152565b60405162461bcd60e51b815260040161068591906148a6565b80858481518110610c0357fe5b60209081029190910101525050600101610b31565b50509392505050565b60608142811015610c445760405162461bcd60e51b8152600401610685906148db565b6001546001600160a01b03168686600081610c5b57fe5b610c7192602060609092020190810191506140e6565b6001600160a01b031614610c975760405162461bcd60e51b815260040161068590614c71565b610cf3878787808060200260200160405190810160405280939291908181526020016000905b82821015610ce957610cda6060830286013681900381019061431c565b81526020019060010190610cbd565b505050505061204e565b91503482600081518110610d0357fe5b60200260200101511115610d295760405162461bcd60e51b815260040161068590614b02565b60015482516001600160a01b039091169063d0e30db0908490600090610d4b57fe5b60200260200101516040518263ffffffff1660e01b81526004016000604051808303818588803b158015610d7e57600080fd5b505af1158015610d92573d6000803e3d6000fd5b5050600154600254600080546001600160a01b03938416965063a9059cbb9550610dc894509192909116908b908b90816107cc57fe5b84600081518110610dd557fe5b60200260200101516040518363ffffffff1660e01b8152600401610dfa9291906147e9565b602060405180830381600087803b158015610e1457600080fd5b505af1158015610e28573d6000803e3d6000fd5b505050506040513d601f19601f82011682018060405250810190610e4c919061411e565b610e5257fe5b610eaf828787808060200260200160405190810160405280939291908181526020016000905b82821015610ea457610e956060830286013681900381019061431c565b81526020019060010190610e78565b505050505086612beb565b81600081518110610ebc57fe5b6020026020010151341115610eeb57610eeb3383600081518110610edc57fe5b60200260200101513403612a37565b5095945050505050565b8042811015610f165760405162461bcd60e51b8152600401610685906148db565b610f6b85856000818110610f2657fe5b610f3c92602060609092020190810191506140e6565b33610f656002546000809054906101000a90046001600160a01b03168a8a60008181106107cc57fe5b8a612afa565b600085856000198101818110610f7d57fe5b9050606002016020016020810190610f9591906140e6565b6001600160a01b03166370a08231856040518263ffffffff1660e01b8152600401610fc0919061474c565b60206040518083038186803b158015610fd857600080fd5b505afa158015610fec573d6000803e3d6000fd5b505050506040513d601f19601f82011682018060405250810190611010919061413a565b905061106e8686808060200260200160405190810160405280939291908181526020016000905b82821015611063576110546060830286013681900381019061431c565b81526020019060010190611037565b505050505085612e8b565b86611122828888600019810181811061108357fe5b905060600201602001602081019061109b91906140e6565b6001600160a01b03166370a08231886040518263ffffffff1660e01b81526004016110c6919061474c565b60206040518083038186803b1580156110de57600080fd5b505afa1580156110f2573d6000803e3d6000fd5b505050506040513d601f19601f82011682018060405250810190611116919061413a565b9063ffffffff61326916565b10156111405760405162461bcd60e51b815260040161068590614cdf565b5050505050505050565b804281101561116b5760405162461bcd60e51b8152600401610685906148db565b6001546001600160a01b0316858560008161118257fe5b61119892602060609092020190810191506140e6565b6001600160a01b0316146111be5760405162461bcd60e51b815260040161068590614c71565b348711156111de5760405162461bcd60e51b815260040161068590614abf565b600160009054906101000a90046001600160a01b03166001600160a01b031663d0e30db0886040518263ffffffff1660e01b81526004016000604051808303818588803b15801561122e57600080fd5b505af1158015611242573d6000803e3d6000fd5b5050600154600254600080546001600160a01b03938416965063a9059cbb955061127894509192909116908a908a90816107cc57fe5b896040518363ffffffff1660e01b81526004016112969291906147e9565b602060405180830381600087803b1580156112b057600080fd5b505af11580156112c4573d6000803e3d6000fd5b505050506040513d601f19601f820116820180604052508101906112e8919061411e565b6112ee57fe5b60008585600019810181811061130057fe5b905060600201602001602081019061131891906140e6565b6001600160a01b03166370a08231856040518263ffffffff1660e01b8152600401611343919061474c565b60206040518083038186803b15801561135b57600080fd5b505afa15801561136f573d6000803e3d6000fd5b505050506040513d601f19601f82011682018060405250810190611393919061413a565b905061106e8686808060200260200160405190810160405280939291908181526020016000905b82821015611063576113d76060830286013681900381019061431c565b815260200190600101906113ba565b80428110156114075760405162461bcd60e51b8152600401610685906148db565b6001546001600160a01b03168585600019810181811061142357fe5b905060600201602001602081019061143b91906140e6565b6001600160a01b0316146114615760405162461bcd60e51b815260040161068590614c71565b61147185856000818110610f2657fe5b6114cd8585808060200260200160405190810160405280939291908181526020016000905b828210156114c2576114b36060830286013681900381019061431c565b81526020019060010190611496565b505050505030612e8b565b6001546040516370a0823160e01b81526000916001600160a01b0316906370a08231906114fe90309060040161474c565b60206040518083038186803b15801561151657600080fd5b505afa15801561152a573d6000803e3d6000fd5b505050506040513d601f19601f8201168201806040525081019061154e919061413a565b9050868110156115705760405162461bcd60e51b815260040161068590614cdf565b600154604051632e1a7d4d60e01b81526001600160a01b0390911690632e1a7d4d906115a0908490600401614e62565b600060405180830381600087803b1580156115ba57600080fd5b505af11580156115ce573d6000803e3d6000fd5b505050506111408482612a37565b600080600083428110156116025760405162461bcd60e51b8152600401610685906148db565b61161d611614368c90038c018c61431c565b8a348b8b61328c565b60025460008054939750919550909161164991906001600160a01b0316610527368f90038f018f61431c565b905061166361165b60208d018d6140e6565b338388612afa565b600160009054906101000a90046001600160a01b03166001600160a01b031663d0e30db0856040518263ffffffff1660e01b81526004016000604051808303818588803b1580156116b357600080fd5b505af11580156116c7573d6000803e3d6000fd5b505060015460405163a9059cbb60e01b81526001600160a01b03909116935063a9059cbb92506116fe9150849088906004016147e9565b602060405180830381600087803b15801561171857600080fd5b505af115801561172c573d6000803e3d6000fd5b505050506040513d601f19601f82011682018060405250810190611750919061411e565b61175657fe5b6040516335313c2160e11b81526001600160a01b03821690636a62784290611782908a9060040161474c565b602060405180830381600087803b15801561179c57600080fd5b505af11580156117b0573d6000803e3d6000fd5b505050506040513d601f19601f820116820180604052508101906117d4919061413a565b9250833411156117ea576117ea33853403612a37565b505096509650969350505050565b60025460008054909182918291611821916001600160a01b0316610527368f90038f018f61431c565b9050600085611830578a611834565b6000195b90506001600160a01b03821663d505accf3330848b61185660208c018c614651565b8b602001358c604001356040518863ffffffff1660e01b81526004016118829796959493929190614760565b600060405180830381600087803b15801561189c57600080fd5b505af11580156118b0573d6000803e3d6000fd5b505050506118d28c8036038101906118c8919061431c565b8c8c8c8c8c6118e5565b909d909c509a5050505050505050505050565b60008082428110156119095760405162461bcd60e51b8152600401610685906148db565b600254600080549091611925916001600160a01b03168c6129b7565b6040516323b872dd60e01b81529091506001600160a01b038216906323b872dd9061195890339085908e906004016147a1565b602060405180830381600087803b15801561197257600080fd5b505af1158015611986573d6000803e3d6000fd5b505050506040513d601f19601f820116820180604052508101906119aa919061411e565b50600080826001600160a01b03166389afcb44896040518263ffffffff1660e01b81526004016119da919061474c565b6040805180830381600087803b1580156119f357600080fd5b505af1158015611a07573d6000803e3d6000fd5b505050506040513d601f19601f82011682018060405250810190611a2b9190614541565b915091506000611a438d600001518e60200151613488565b509050806001600160a01b03168d600001516001600160a01b031614611a6a578183611a6d565b82825b90975095508a871015611a925760405162461bcd60e51b815260040161068590614da5565b89861015611ab25760405162461bcd60e51b815260040161068590614b85565b5050505050965096945050505050565b60608082516001016001600160401b0381118015611adf57600080fd5b50604051908082528060200260200182016040528015611b09578160200160208202803683370190505b50905082600081518110611b1957fe5b6020026020010151600001516001600160a01b031663313ce5676040518163ffffffff1660e01b815260040160206040518083038186803b158015611b5d57600080fd5b505afa158015611b71573d6000803e3d6000fd5b505050506040513d601f19601f82011682018060405250810190611b95919061466d565b60ff1681600081518110611ba557fe5b60200260200101818152505060005b8351811015611c6a57838181518110611bc957fe5b6020026020010151602001516001600160a01b031663313ce5676040518163ffffffff1660e01b815260040160206040518083038186803b158015611c0d57600080fd5b505afa158015611c21573d6000803e3d6000fd5b505050506040513d601f19601f82011682018060405250810190611c45919061466d565b60ff16828260010181518110611c5757fe5b6020908102919091010152600101611bb4565b50600054611c83906001600160a01b0316858584613512565b9150505b92915050565b6000611c9d878787878787613655565b90505b9695505050505050565b6001546001600160a01b031681565b6000611cc684848461380c565b90505b9392505050565b6000546001600160a01b031681565b60008142811015611d025760405162461bcd60e51b8152600401610685906148db565b611d108888888830886118e5565b89516040516370a0823160e01b8152919450611d9e92509086906001600160a01b038316906370a0823190611d4990309060040161474c565b60206040518083038186803b158015611d6157600080fd5b505afa158015611d75573d6000803e3d6000fd5b505050506040513d601f19601f82011682018060405250810190611d99919061413a565b612d9d565b600154604051632e1a7d4d60e01b81526001600160a01b0390911690632e1a7d4d90611dce908590600401614e62565b600060405180830381600087803b158015611de857600080fd5b505af1158015611dfc573d6000803e3d6000fd5b505050506108f78483612a37565b60608142811015611e2d5760405162461bcd60e51b8152600401610685906148db565b6001546001600160a01b03168686600081611e4457fe5b611e5a92602060609092020190810191506140e6565b6001600160a01b031614611e805760405162461bcd60e51b815260040161068590614c71565b611ed2878787808060200260200160405190810160405280939291908181526020016000905b82821015610ce957611ec36060830286013681900381019061431c565b81526020019060010190611ea6565b60015481519193506001600160a01b03169063d0e30db0908490600090611ef557fe5b60200260200101516040518263ffffffff1660e01b81526004016000604051808303818588803b158015611f2857600080fd5b505af1158015611f3c573d6000803e3d6000fd5b5050600154600254600080546001600160a01b03938416965063a9059cbb9550611f7294509192909116908b908b90816107cc57fe5b84600081518110611f7f57fe5b60200260200101516040518363ffffffff1660e01b8152600401611fa49291906147e9565b602060405180830381600087803b158015611fbe57600080fd5b505af1158015611fd2573d6000803e3d6000fd5b505050506040513d601f19601f82011682018060405250810190611ff6919061411e565b611ffc57fe5b610eeb828787808060200260200160405190810160405280939291908181526020016000905b82821015610ea45761203f6060830286013681900381019061431c565b81526020019060010190612022565b60608082516001016001600160401b038111801561206b57600080fd5b50604051908082528060200260200182016040528015612095578160200160208202803683370190505b509050826000815181106120a557fe5b6020026020010151600001516001600160a01b031663313ce5676040518163ffffffff1660e01b815260040160206040518083038186803b1580156120e957600080fd5b505afa1580156120fd573d6000803e3d6000fd5b505050506040513d601f19601f82011682018060405250810190612121919061466d565b60ff168160008151811061213157fe5b60200260200101818152505060005b83518110156121f65783818151811061215557fe5b6020026020010151602001516001600160a01b031663313ce5676040518163ffffffff1660e01b815260040160206040518083038186803b15801561219957600080fd5b505afa1580156121ad573d6000803e3d6000fd5b505050506040513d601f19601f820116820180604052508101906121d1919061466d565b60ff168282600101815181106121e357fe5b6020908102919091010152600101612140565b50600054611c83906001600160a01b031685858461387a565b606081428110156122325760405162461bcd60e51b8152600401610685906148db565b6001546001600160a01b03168686600019810181811061224e57fe5b905060600201602001602081019061226691906140e6565b6001600160a01b03161461228c5760405162461bcd60e51b815260040161068590614c71565b6122de888787808060200260200160405190810160405280939291908181526020016000905b82821015610ce9576122cf6060830286013681900381019061431c565b815260200190600101906122b2565b915086826000815181106122ee57fe5b602002602001015111156123145760405162461bcd60e51b815260040161068590614b02565b6123248686600081811061078d57fe5b610859828787808060200260200160405190810160405280939291908181526020016000905b8282101561084e576123676060830286013681900381019061431c565b8152602001906001019061234a565b6000611c9d8787878787876139b8565b600080600083428110156123ac5760405162461bcd60e51b8152600401610685906148db565b6123c76123be368d90038d018d61431c565b8b8b8b8b61328c565b809450819550505060006123fd6002546000809054906101000a90046001600160a01b03168e803603810190610527919061431c565b905061240f61165b60208e018e6140e6565b61242a61242260408e0160208f016140e6565b338387612afa565b6040516335313c2160e11b81526001600160a01b03821690636a62784290612456908a9060040161474c565b602060405180830381600087803b15801561247057600080fd5b505af1158015612484573d6000803e3d6000fd5b505050506040513d601f19601f820116820180604052508101906124a8919061413a565b925050509750975097945050505050565b606081428110156124dc5760405162461bcd60e51b8152600401610685906148db565b61252e888787808060200260200160405190810160405280939291908181526020016000905b82821015610ce95761251f6060830286013681900381019061431c565b81526020019060010190612502565b9150868260008151811061253e57fe5b602002602001015111156125645760405162461bcd60e51b815260040161068590614b02565b6125748686600081811061078d57fe5b6108f7828787808060200260200160405190810160405280939291908181526020016000905b82821015610ea4576125b76060830286013681900381019061431c565b8152602001906001019061259a565b606081428110156125e95760405162461bcd60e51b8152600401610685906148db565b61263b888787808060200260200160405190810160405280939291908181526020016000905b8282101561073a5761262c6060830286013681900381019061431c565b8152602001906001019061260f565b9150868260018451038151811061264e57fe5b602002602001015110156126745760405162461bcd60e51b815260040161068590614cdf565b6126c98686600081811061268457fe5b61269a92602060609092020190810191506140e6565b336126c36002546000809054906101000a90046001600160a01b03168b8b60008181106107cc57fe5b8b612afa565b6108f7828787808060200260200160405190810160405280939291908181526020016000905b82821015610ea45761270c6060830286013681900381019061431c565b815260200190600101906126ef565b6060814281101561273e5760405162461bcd60e51b8152600401610685906148db565b6001546001600160a01b0316868660008161275557fe5b61276b92602060609092020190810191506140e6565b6001600160a01b0316146127915760405162461bcd60e51b815260040161068590614c71565b348811156127b15760405162461bcd60e51b815260040161068590614abf565b612803888787808060200260200160405190810160405280939291908181526020016000905b8282101561073a576127f46060830286013681900381019061431c565b815260200190600101906127d7565b9150868260018451038151811061281657fe5b6020026020010151101561283c5760405162461bcd60e51b815260040161068590614cdf565b60015482516001600160a01b039091169063d0e30db090849060009061285e57fe5b60200260200101516040518263ffffffff1660e01b81526004016000604051808303818588803b15801561289157600080fd5b505af11580156128a5573d6000803e3d6000fd5b5050600154600254600080546001600160a01b03938416965063a9059cbb95506128db94509192909116908b908b90816107cc57fe5b846000815181106128e857fe5b60200260200101516040518363ffffffff1660e01b815260040161290d9291906147e9565b602060405180830381600087803b15801561292757600080fd5b505af115801561293b573d6000803e3d6000fd5b505050506040513d601f19601f8201168201806040525081019061295f919061411e565b61296557fe5b6108f7828787808060200260200160405190810160405280939291908181526020016000905b82821015610ea4576129a86060830286013681900381019061431c565b8152602001906001019061298b565b60008060006129ce84600001518560200151613488565b9150915084828286604001516040516020016129ec939291906146b5565b6040516020818303038152906040528051906020012087604051602001612a1593929190614714565b60408051601f1981840301815291905280516020909101209695505050505050565b612a686040518060400160405280600f81526020016e3a3930b739b332b92432b632b832b960891b81525082613b67565b604080516000808252602082019092526001600160a01b038416908390604051612a9291906146f8565b60006040518083038185875af1925050503d8060008114612acf576040519150601f19603f3d011682016040523d82523d6000602084013e612ad4565b606091505b5050905080612af55760405162461bcd60e51b815260040161068590614a25565b505050565b60006060856001600160a01b03166323b872dd868686604051602401612b22939291906147a1565b6040516020818303038152906040529060e01b6020820180516001600160e01b038381831617835250505050604051612b5b91906146f8565b6000604051808303816000865af19150503d8060008114612b98576040519150601f19603f3d011682016040523d82523d6000602084013e612b9d565b606091505b5091509150818015612bc7575080511580612bc7575080806020019051810190612bc7919061411e565b612be35760405162461bcd60e51b8152600401610685906149d4565b505050505050565b60005b60018351038111612d9757600080848381518110612c0857fe5b602002602001015160000151858481518110612c2057fe5b602002602001015160200151915091506000612c3c8383613488565b5090506000878560010181518110612c5057fe5b60200260200101519050600080836001600160a01b0316866001600160a01b031614612c7e57826000612c82565b6000835b91509150600060018a51038810612c995788612ccc565b6002546000548b51612ccc92916001600160a01b0316908d9060018d01908110612cbf57fe5b60200260200101516129b7565b9050612cf56002546000809054906101000a90046001600160a01b03168c8b81518110612cbf57fe5b6001600160a01b031663022c0d9f84848460006040519080825280601f01601f191660200182016040528015612d32576020820181803683370190505b506040518563ffffffff1660e01b8152600401612d529493929190614e79565b600060405180830381600087803b158015612d6c57600080fd5b505af1158015612d80573d6000803e3d6000fd5b505060019099019850612bee975050505050505050565b50505050565b60006060846001600160a01b031663a9059cbb8585604051602401612dc39291906147e9565b6040516020818303038152906040529060e01b6020820180516001600160e01b038381831617835250505050604051612dfc91906146f8565b6000604051808303816000865af19150503d8060008114612e39576040519150601f19603f3d011682016040523d82523d6000602084013e612e3e565b606091505b5091509150818015612e68575080511580612e68575080806020019051810190612e68919061411e565b612e845760405162461bcd60e51b815260040161068590614d2b565b5050505050565b60005b8251811015612af5576000612ed1848381518110612ea857fe5b602002602001015160000151858481518110612ec057fe5b602002602001015160200151613488565b5090506000612efd6002546000809054906101000a90046001600160a01b0316878681518110612cbf57fe5b9050600080600080600080866001600160a01b0316630902f1ac6040518163ffffffff1660e01b815260040160606040518083038186803b158015612f4157600080fd5b505afa158015612f55573d6000803e3d6000fd5b505050506040513d601f19601f82011682018060405250810190612f79919061435a565b506001600160701b031691506001600160701b03169150876001600160a01b03168b8a81518110612fa657fe5b6020026020010151600001516001600160a01b031614612fc7578082612fca565b81815b8094508195505050613019848c8b81518110612fe257fe5b6020026020010151600001516001600160a01b03166370a082318a6040518263ffffffff1660e01b81526004016110c6919061474c565b95505050600089888151811061302b57fe5b6020026020010151600001516001600160a01b031663313ce5676040518163ffffffff1660e01b815260040160206040518083038186803b15801561306f57600080fd5b505afa158015613083573d6000803e3d6000fd5b505050506040513d601f19601f820116820180604052508101906130a7919061466d565b60ff16905060008a89815181106130ba57fe5b6020026020010151602001516001600160a01b031663313ce5676040518163ffffffff1660e01b815260040160206040518083038186803b1580156130fe57600080fd5b505afa158015613112573d6000803e3d6000fd5b505050506040513d601f19601f82011682018060405250810190613136919061466d565b60ff1690506131608685858e8d8151811061314d57fe5b6020026020010151604001518686612376565b94505050600080876001600160a01b03168b8a8151811061317d57fe5b6020026020010151600001516001600160a01b03161461319f578460006131a3565b6000855b91509150600060018c51038a106131ba578a6131e0565b6002546000548d516131e092916001600160a01b0316908f9060018f01908110612cbf57fe5b6040805160008152602081019182905263022c0d9f60e01b9091529091506001600160a01b0389169063022c0d9f906132229086908690869060248101614e79565b600060405180830381600087803b15801561323c57600080fd5b505af1158015613250573d6000803e3d6000fd5b50506001909b019a50612e8e9950505050505050505050565b80820382811115611c875760405162461bcd60e51b815260040161068590614949565b60008054865160208801516040808a015190516306801cc360e41b8152859485946001600160a01b0390911693636801cc30936132cb936004016147c5565b60206040518083038186803b1580156132e357600080fd5b505afa1580156132f7573d6000803e3d6000fd5b505050506040513d601f19601f8201168201806040525081019061331b9190614102565b90506001600160a01b0381166133be57600054885160208a01516040808c015190516320b7f73960e21b81526001600160a01b03909416936382dfdce49361336993909290916004016147c5565b602060405180830381600087803b15801561338357600080fd5b505af1158015613397573d6000803e3d6000fd5b505050506040513d601f19601f820116820180604052508101906133bb9190614102565b90505b6000805481906133d7906001600160a01b03168b613bb0565b915091508160001480156133e9575080155b156133f95788945087935061347b565b60006134068a848461380c565b905088811161343a578681101561342f5760405162461bcd60e51b815260040161068590614b85565b899550935083613479565b60006134478a848661380c565b90508a81111561345357fe5b888110156134735760405162461bcd60e51b815260040161068590614da5565b95508894505b505b5050509550959350505050565b600080826001600160a01b0316846001600160a01b031614156134bd5760405162461bcd60e51b815260040161068590614a79565b826001600160a01b0316846001600160a01b0316106134dd5782846134e0565b83835b90925090506001600160a01b03821661350b5760405162461bcd60e51b815260040161068590614912565b9250929050565b60606001835110156135365760405162461bcd60e51b815260040161068590614ca8565b82516001016001600160401b038111801561355057600080fd5b5060405190808252806020026020018201604052801561357a578160200160208202803683370190505b509050838160008151811061358b57fe5b60200260200101818152505060005b835181101561364c576000806135c3888785815181106135b657fe5b6020026020010151613bb0565b915091506136288484815181106135d657fe5b602002602001015183838987815181106135ec57fe5b60200260200101516040015189888151811061360457fe5b60200260200101518a896001018151811061361b57fe5b60200260200101516139b8565b84846001018151811061363757fe5b6020908102919091010152505060010161359a565b50949350505050565b60008087116136765760405162461bcd60e51b815260040161068590614b4a565b6000861180156136865750600085115b6136a25760405162461bcd60e51b815260040161068590614c3a565b83156137a4576136bc83600a81900a63ffffffff613d0a16565b92506136d282600a81900a63ffffffff613d0a16565b91506136e68761271063ffffffff613d4116565b8703965060006136f887878686613d71565b90506137228461371689670de0b6b3a764000063ffffffff613d0a16565b9063ffffffff613d4116565b96506137408361371688670de0b6b3a764000063ffffffff613d0a16565b955061375e836137168a670de0b6b3a764000063ffffffff613d0a16565b975061377e87611116613777898c63ffffffff61326916565b848b613e2d565b915061379c670de0b6b3a7640000613716848763ffffffff613d0a16565b915050611ca0565b60006137c86103e86137bc898b63ffffffff613d0a16565b9063ffffffff613d0a16565b905060006137e26103e56137bc898c63ffffffff61326916565b90506137ff60018284816137f257fe5b049063ffffffff613f3b16565b9998505050505050505050565b600080841161382d5760405162461bcd60e51b815260040161068590614c06565b60008311801561383d5750600082115b6138595760405162461bcd60e51b815260040161068590614c3a565b8261386a858463ffffffff613d0a16565b8161387157fe5b04949350505050565b606060018351101561389e5760405162461bcd60e51b815260040161068590614ca8565b82516001016001600160401b03811180156138b857600080fd5b506040519080825280602002602001820160405280156138e2578160200160208202803683370190505b50905083816001835103815181106138f657fe5b6020908102919091010152825160001981015b818110156139ae57600080613924898885815181106135b657fe5b9150915061398c85846001018151811061393a57fe5b602002602001015183838a878151811061395057fe5b6020026020010151604001518a888151811061396857fe5b60200260200101518b896001018151811061397f57fe5b6020026020010151613655565b85848151811061399857fe5b6020908102919091010152505060001901613909565b5050949350505050565b60008087116139d95760405162461bcd60e51b815260040161068590614bcc565b6000861180156139e95750600085115b613a055760405162461bcd60e51b815260040161068590614c3a565b8315613aff57613a1d8761271063ffffffff613d4116565b90960395613a3583600a81900a63ffffffff613d0a16565b9250613a4b82600a81900a63ffffffff613d0a16565b91506000613a5b87878686613d71565b9050613a798461371689670de0b6b3a764000063ffffffff613d0a16565b9650613a978361371688670de0b6b3a764000063ffffffff613d0a16565b9550613ab5846137168a670de0b6b3a764000063ffffffff613d0a16565b9750613ae1613ad4613acd8a8a63ffffffff613f3b16565b8389613e2d565b879063ffffffff61326916565b915061379c670de0b6b3a7640000613716848663ffffffff613d0a16565b6000613b13886103e563ffffffff613d0a16565b90506000613b27828863ffffffff613d0a16565b90506000613b4d83613b418b6103e863ffffffff613d0a16565b9063ffffffff613f3b16565b9050808281613b5857fe5b049a9950505050505050505050565b613bac8282604051602401613b7d9291906148b9565b60408051601f198184030181529190526020810180516001600160e01b0316632d839cb360e21b179052613f5e565b5050565b6000806000613bc784600001518560200151613488565b5090506000856001600160a01b031663a35a337a6040518163ffffffff1660e01b815260040160206040518083038186803b158015613c0557600080fd5b505afa158015613c19573d6000803e3d6000fd5b505050506040513d601f19601f82011682018060405250810190613c3d919061413a565b9050600080613c4d8389896129b7565b6001600160a01b0316630902f1ac6040518163ffffffff1660e01b815260040160606040518083038186803b158015613c8557600080fd5b505afa158015613c99573d6000803e3d6000fd5b505050506040513d601f19601f82011682018060405250810190613cbd919061435a565b506001600160701b031691506001600160701b03169150836001600160a01b031687600001516001600160a01b031614613cf8578082613cfb565b81815b90999098509650505050505050565b6000811580613d2557505080820282828281613d2257fe5b04145b611c875760405162461bcd60e51b815260040161068590614978565b600081613d605760405162461bcd60e51b815260040161068590614d78565b818381613d6957fe5b049392505050565b600080613d908461371688670de0b6b3a764000063ffffffff613d0a16565b90506000613db08461371688670de0b6b3a764000063ffffffff613d0a16565b90506000613dd0670de0b6b3a7640000613716858563ffffffff613d0a16565b90506000613e0f613df3670de0b6b3a7640000613716868063ffffffff613d0a16565b613b41670de0b6b3a7640000613716888063ffffffff613d0a16565b90506137ff670de0b6b3a7640000613716848463ffffffff613d0a16565b6000805b60ff811015613f3257826000613e478783613f7f565b905085811015613e96576000613e7c613e608988613fde565b613716670de0b6b3a76400006137bc8b8763ffffffff61326916565b9050613e8e868263ffffffff613f3b16565b955050613ed7565b6000613ec1613ea58988613fde565b613716670de0b6b3a76400006137bc868c63ffffffff61326916565b9050613ed3868263ffffffff61326916565b9550505b81851115613f06576001613ef1868463ffffffff61326916565b11613f0157849350505050611cc9565b613f28565b6001613f18838763ffffffff61326916565b11613f2857849350505050611cc9565b5050600101613e31565b50909392505050565b80820182811015611c875760405162461bcd60e51b8152600401610685906149a6565b80516a636f6e736f6c652e6c6f67602083016000808483855afa5050505050565b6000611cc9613faa670de0b6b3a7640000613716856137bc83838a838383838063ffffffff613d0a16565b613b41670de0b6b3a7640000613716613fd18282896137bc8383838063ffffffff613d0a16565b889063ffffffff613d0a16565b6000611cc9614005670de0b6b3a7640000613716866137bc8383838063ffffffff613d0a16565b613b41670de0b6b3a76400006137166140268282898063ffffffff613d0a16565b6137bc60038a63ffffffff613d0a16565b60008083601f840112614048578182fd5b5081356001600160401b0381111561405e578182fd5b60208301915083602060608302850101111561350b57600080fd5b60006060828403121561408a578081fd5b50919050565b6000606082840312156140a1578081fd5b6140ab6060614f02565b905081356140b881614f54565b815260208201356140c881614f54565b602082015260408201356140db81614f6c565b604082015292915050565b6000602082840312156140f7578081fd5b8135611cc981614f54565b600060208284031215614113578081fd5b8151611cc981614f54565b60006020828403121561412f578081fd5b8151611cc981614f6c565b60006020828403121561414b578081fd5b5051919050565b600060208284031215614163578081fd5b81516001600160401b0380821115614179578283fd5b81840185601f82011261418a578384fd5b805192508183111561419a578384fd5b6141ad601f8401601f1916602001614f02565b91508282528560208483010111156141c3578384fd5b61364c836020840160208401614f28565b60008060008060008061010087890312156141ed578182fd5b6141f78888614079565b9550606087013594506080870135935060a0870135925060c087013561421c81614f54565b8092505060e087013590509295509295509295565b600080600080600080600080610180898b03121561424d578182fd5b6142578a8a614079565b9750606089013596506080890135955060a0890135945060c089013561427c81614f54565b935060e0890135925061010089013561429481614f6c565b91506142a48a6101208b01614079565b90509295985092959890939650565b6000806000806000806000610120888a0312156142ce578081fd5b6142d88989614079565b9650606088013595506080880135945060a0880135935060c0880135925060e088013561430481614f54565b80925050610100880135905092959891949750929550565b60006060828403121561432d578081fd5b611cc98383614090565b6000806000806000806101008789031215614350578384fd5b6141f78888614090565b60008060006060848603121561436e578081fd5b835161437981614f7a565b602085015190935061438a81614f7a565b604085015190925063ffffffff811681146143a3578182fd5b809150509250925092565b6000806000604084860312156143c2578081fd5b8335925060208401356001600160401b03808211156143df578283fd5b81860187601f8201126143f0578384fd5b8035925081831115614400578384fd5b8760208085028301011115614413578384fd5b949760209095019650909450505050565b60008060008060006080868803121561443b578283fd5b8535945060208601356001600160401b03811115614457578384fd5b61446388828901614037565b909550935050604086013561447781614f54565b949793965091946060013592915050565b6000806040838503121561449a578182fd5b823591506020808401356001600160401b03808211156144b8578384fd5b81860187601f8201126144c9578485fd5b80359250818311156144d9578485fd5b6144e68485850201614f02565b83815284810192508185016060808602840187018b1015614505578788fd5b8793505b858410156145315761451b8b83614090565b8552938601936001939093019290810190614509565b5096999098509650505050505050565b60008060408385031215614553578182fd5b505080516020909101519092909150565b60008060008060008060a0878903121561457c578384fd5b863595506020870135945060408701356001600160401b0381111561459f578485fd5b6145ab89828a01614037565b90955093505060608701356145bf81614f54565b80925050608087013590509295509295509295565b6000806000606084860312156145e8578081fd5b505081359360208301359350604090920135919050565b60008060008060008060c08789031215614617578384fd5b863595506020870135945060408701359350606087013561463781614f6c565b9598949750929560808101359460a0909101359350915050565b600060208284031215614662578081fd5b8135611cc981614f8f565b60006020828403121561467e578081fd5b8151611cc981614f8f565b600081518084526146a1816020860160208601614f28565b601f01601f19169290920160200192915050565b6bffffffffffffffffffffffff19606094851b811682529290931b9091166014830152151560f81b602882015260290190565b6000828483379101908152919050565b6000825161470a818460208701614f28565b9190910192915050565b6001600160f81b0319815260609390931b6bffffffffffffffffffffffff191660018401526015830191909152603582015260550190565b6001600160a01b0391909116815260200190565b6001600160a01b0397881681529590961660208601526040850193909352606084019190915260ff16608083015260a082015260c081019190915260e00190565b6001600160a01b039384168152919092166020820152604081019190915260600190565b6001600160a01b039384168152919092166020820152901515604082015260600190565b6001600160a01b03929092168252602082015260400190565b6000602080830181845280855180835260408601915060408482028701019250838701855b8281101561485557603f19888603018452614843858351614689565b94509285019290850190600101614827565b5092979650505050505050565b6020808252825182820181905260009190848201906040850190845b8181101561489a5783518352928401929184019160010161487e565b50909695505050505050565b600060208252611cc96020830184614689565b6000604082526148cc6040830185614689565b90508260208301529392505050565b60208082526019908201527f54656c65737761705632526f757465723a204558504952454400000000000000604082015260600190565b6020808252601f908201527f54656c657377617056324c6962726172793a205a45524f5f4144445245535300604082015260600190565b60208082526015908201527464732d6d6174682d7375622d756e646572666c6f7760581b604082015260600190565b60208082526014908201527364732d6d6174682d6d756c2d6f766572666c6f7760601b604082015260600190565b60208082526014908201527364732d6d6174682d6164642d6f766572666c6f7760601b604082015260600190565b60208082526031908201527f5472616e7366657248656c7065723a3a7472616e7366657246726f6d3a207472604082015270185b9cd9995c919c9bdb4819985a5b1959607a1b606082015260800190565b60208082526034908201527f5472616e7366657248656c7065723a3a736166655472616e736665724554483a60408201527308115512081d1c985b9cd9995c8819985a5b195960621b606082015260800190565b60208082526026908201527f54656c657377617056324c6962726172793a204944454e544943414c5f41444460408201526552455353455360d01b606082015260800190565b60208082526023908201527f54656c65737761705632526f757465723a20494e56414c49445f4d53475f56416040820152624c554560e81b606082015260800190565b60208082526028908201527f54656c65737761705632526f757465723a204558434553534956455f494e50556040820152671517d05353d5539560c21b606082015260800190565b6020808252602d90820152600080516020614f9f83398151915260408201526c13d55514155517d05353d55395609a1b606082015260800190565b60208082526027908201527f54656c65737761705632526f757465723a20494e53554646494349454e545f4260408201526617d05353d5539560ca1b606082015260800190565b6020808252602c90820152600080516020614f9f83398151915260408201526b125394155517d05353d5539560a21b606082015260800190565b6020808252602690820152600080516020614f9f833981519152604082015265105353d5539560d21b606082015260800190565b6020808252602990820152600080516020614f9f8339815191526040820152684c495155494449545960b81b606082015260800190565b6020808252601e908201527f54656c65737761705632526f757465723a20494e56414c49445f504154480000604082015260600190565b6020808252601f908201527f54656c657377617056324c6962726172793a20494e56414c49445f5041544800604082015260600190565b6020808252602c908201527f54656c65737761705632526f757465723a20494e53554646494349454e545f4f60408201526b155514155517d05353d5539560a21b606082015260800190565b6020808252602d908201527f5472616e7366657248656c7065723a3a736166655472616e736665723a20747260408201526c185b9cd9995c8819985a5b1959609a1b606082015260800190565b60208082526013908201527264732d6d6174682d6469762d62792d7a65726f60681b604082015260600190565b60208082526027908201527f54656c65737761705632526f757465723a20494e53554646494349454e545f4160408201526617d05353d5539560ca1b606082015260800190565b61010081018735614dfc81614f54565b6001600160a01b039081168352602089013590614e1882614f54565b9081166020840152604089013590614e2f82614f6c565b90151560408401526060830197909752608082019590955260a0810193909352931660c082015260e00191909152919050565b90815260200190565b918252602082015260400190565b600085825284602083015260018060a01b038416604083015260806060830152611ca06080830184614689565b9283526020830191909152604082015260600190565b6000808335601e19843603018112614ed2578283fd5b808401803592506001600160401b03831115614eec578384fd5b6020019250503681900382131561350b57600080fd5b6040518181016001600160401b0381118282101715614f2057600080fd5b604052919050565b60005b83811015614f43578181015183820152602001614f2b565b83811115612d975750506000910152565b6001600160a01b0381168114614f6957600080fd5b50565b8015158114614f6957600080fd5b6001600160701b0381168114614f6957600080fd5b60ff81168114614f6957600080fdfe54656c657377617056324c6962726172793a20494e53554646494349454e545fa264697066735822122086b3f9f4e1622c6e417d3738c4dbd9643caa62771a092cdd28f714c0453403d164736f6c63430006060033",
  "linkReferences": {},
  "deployedLinkReferences": {}
}